:020000040800F2
:10000000005000200D010008C95A0008D55A000808
:10001000DD5A0008E55A0008ED5A0008000000000B
:10002000000000000000000000000000F55A000879
:10003000015B0008000000000D5B0008E101000802
:100040009901000899010008990100089901000828
:100050009901000899010008990100089901000818
:100060009901000899010008990100089901000808
:1000700099010008990100089901000899010008F8
:1000800099010008990100089901000899010008E8
:10009000195B0008990100089901000899010008FE
:1000A00099010008990100089901000899010008C8
:1000B0001D560008990100089901000899010008DF
:1000C00099010008990100089901000899010008A8
:1000D0009901000899010008990100089901000898
:1000E0004956000899010008990100080000000025
:1000F0000000000000000000000000000000000000
:1001000000000000000000005FF808F180B584B036
:1001100000AF0D4BBB600D4B7B60BB683B6004E0E8
:100120003B681A1D3A6000221A607A683B689A425E
:10013000F6D807F07DFA05F0C7FAF86007F0AEFAD6
:10014000F86807F0C9FA00BF20090020F80C002069
:1001500080B584B000AF0D4BFB600D4BBB600D4B09
:100160007B60BB683B6007E03B681A1D3A60FA6839
:10017000111DF96012681A607A683B689A42F3D8D8
:1001800007F0B0FA1037BD4680BD00BFE8A70008F1
:10019000000000202009002080B400AFFEE700BF6F
:1001A00080B400AFFEE700BF80B400AFFEE700BF41
:1001B00080B400AFFEE700BF80B400AFFEE700BF31
:1001C00080B400AFFEE700BF80B400AFFEE700BF21
:1001D00080B400AFFEE700BF80B400AFFEE700BF11
:0801E00080B400AFFEE700BF90
:0401E80051010008B9
:1001F00080B584B000AF0346FB710423184601218B
:1002000007F04EF80223BB811023FB730323BB735B
:10021000FA79064B53F8222007F10C0310461946D1
:1002200006F0F4FB1037BD4680BD00BF0000002083
:1002300080B483B000AF0346FB71FA79044B53F8E6
:10024000223002225A610C37BD465DF8047B7047AC
:100250000000002080B483B000AF0346FB71FA7940
:10026000074B53F82230F979054A52F82120D1681A
:1002700002224A40DA600C37BD465DF8047B7047C5
:100280000000002080B400AF62B6BD465DF8047B7C
:10029000704700BF80B400AF72B6BD465DF8047B06
:1002A000704700BF80B588B000AF78603960092022
:1002B000012106F0F5FF7A68254B9A4208D14FF4E8
:1002C0008000012107F00AF84FF44063BB810BE086
:1002D0000220012106F072FC4FF40010012106F00B
:1002E000FDFF4FF44073BB810323BB731C23FB73DF
:1002F00007F10C031748194606F088FB0023BB8260
:100300004BF6FF73FB8200233B834FF480637B83B8
:100310004FF48043BB833B683B6107F1100378686F
:10032000194606F0F9FC7868012106F0B7FD7A68F5
:10033000094B9A4202D1084800F010F87A68044B41
:100340009A4202D1024800F009F82037BD4680BD2C
:1003500000580040000C01400054004080B582B0BD
:1003600000AF78600120012106F07CFF264B0022BF
:100370005A60254B10229A60234B4FF6FF72DA60C9
:10038000214B00221A61204B80225A611E4B002211
:100390009A611D4B0022DA611B4B00221A621A4B34
:1003A0004FF440525A62184B00229A627A68174BF7
:1003B0009A4210D1144B164A1A60164806F02CF9CE
:1003C0001448114906F0E4F9134806F025F91248DB
:1003D0000D4906F0DDF97A68104B9A4210D10A4BAC
:1003E0000F4A1A600F4806F017F90E48064906F042
:1003F000CFF90D4806F010F90B48034906F0C8F98B
:100400000837BD4680BD00BF5C0A00200058004090
:100410001058004044000240580002400054004080
:10042000105400406C0002408000024080B584B04F
:1004300000AFF860B9607A603B603B68002B2CD15C
:10044000BA682D4B5A602C4B10229A602A4B7A685E
:10045000DA60FA68294B9A420FD1274B284A1A6072
:100460002848002106F0D2F92648234906F090F9E1
:100470002448012106F0CAF93BE01F4B224A1A60CA
:100480002248002106F0C2F920481B4906F080F9F5
:100490001E48012106F0BAF92BE0BA68164B5A60E3
:1004A000154B00229A60144B7A68DA60FA68134B95
:1004B0009A420FD1104B124A1A601548002106F0DB
:1004C000A5F913480C4906F063F91148012106F01B
:1004D0009DF90EE0084B0C4A1A600E48002106F008
:1004E00095F90C48044906F053F90A48012106F031
:1004F0008DF91037BD4680BD5C0A002000580040D1
:100500001058004044000240105400406C0002406B
:10051000580002408000024080B586B000AFF8600D
:100520007A600A46FA72BB7200237B6100233B614A
:10053000FB689B889BB243F480739AB2FB689A80F5
:1005400097F82030012B03D9BB7A63F07F03BB728D
:10055000FFF7A0FE00BFF8684FF4003106F09CFDE5
:100560000346002BF7D1F868012106F0D7FC00BF45
:10057000F868534906F060FD0346002BF8D0FB7A7B
:10058000F8681946002206F039FD00BFF8684D49A9
:1005900006F052FD0346002BF8D0F868012106F062
:1005A0007DFCBB7AF868194606F018FD00BFF868B4
:1005B000454906F041FD0346002BF8D097F820305E
:1005C000F86879681A460123FFF730FFFB689B88BB
:1005D0009BB243F480539AB2FB689A80F868012179
:1005E00006F07CFC4FF6FF733B61F868012106F0D2
:1005F00095FC05E03B695A1E3A61002B00D15CE096
:10060000F8682F4906F018FD0346002BF2D04FF68C
:10061000FF733B61FB7AF8681946012206F0EEFC95
:1006200005E03B695A1E3A61002B00D145E0F868AD
:10063000264906F001FD0346002BF2D0FB681B8B18
:100640009BB27B61FA68224B9A4210D100BF4FF4F3
:10065000003006F0F7F80346002BF8D01D480021C3
:1006600006F0D4F84FF4003006F016F90FE000BFA2
:100670004FF0007006F0E6F80346002BF8D016485D
:10068000002106F0C3F84FF0007006F005F9F86895
:10069000002106F083FCF868012106F05FFC00BF32
:1006A000FB681B889BB203F40073002BF8D1F86839
:1006B000012106F073FCFFF7E5FD1837BD4680BD4C
:1006C000010003008200070084000700020003000D
:1006D00000580040580002408000024080B586B0BB
:1006E00000AFF8607A600A46FA72BB7200237B6141
:1006F00000233B6197F82030012B03D9BB7A63F0CC
:100700007F03BB72454BBA7A1A7097F82030444881
:1007100079681A4608F040FAFB689B889BB243F45C
:1007200080739AB2FB689A804FF6FF733B6197F82B
:1007300020300133F86839491A460023FFF776FE66
:10074000F868012106F0CAFBF868012106F0E6FB13
:1007500005E03B695A1E3A61002B00D15AE0F86867
:10076000304906F069FC0346002BF2D04FF6FF73C8
:100770003B61FB7AF8681946002206F03FFC05E071
:100780003B695A1E3A61002B00D143E0F8682649C4
:1007900006F052FC0346002BF2D0FB681B8B9BB289
:1007A0007B61FA68214B9A4210D100BF4FF4005090
:1007B00006F048F80346002BF8D01D48002106F04B
:1007C00025F84FF4005006F067F80FE000BF4FF433
:1007D000001006F037F80346002BF8D0154800212A
:1007E00006F014F84FF4001006F056F800BFF86851
:1007F000114906F021FC0346002BF8D0F8680121CE
:1008000006F0ACFB00BFFB681B889BB203F40073CF
:10081000002BF8D11837BD4680BD00BF200900204D
:100820002109002001000300820007000058004059
:10083000440002406C0002408400070080B400AF16
:1008400062B6BD465DF8047B704700BF80B400AF60
:1008500072B6BD465DF8047B704700BF80B588B0B6
:1008600000AF78600120012106F01AFD7A68464B3E
:100870009A420CD14FF48040012106F02FFD082050
:10088000012106F00DFD4FF420433B810AE04FF4B7
:100890008050012106F004FD0420012106F000FD36
:1008A000A0233B811823FB720323BB727A68364B6B
:1008B0009A4209D107F108033448194606F0A6F810
:1008C0004FF480433B8107E007F1080330481946A5
:1008D00006F09CF840233B810423FB727A682A4B84
:1008E0009A4206D107F108032848194606F08EF807
:1008F00005E007F108032648194606F087F80023AB
:10090000BB814FF48273FB8100233B8200237B82F7
:100910000023BB824FF40073FB8208233B83002338
:100920007B830723BB8307F10C037868194606F025
:10093000F3FC1023FB720323BB727A68124B9A42BA
:100940000ED14FF480533B8107F108030F4819463D
:1009500006F05CF80D484FF4805106F013F90BE0F7
:1009600010233B8107F108030948194606F04EF8A9
:100970000748102106F006F97868012106F010FDFD
:100980002037BD4680BD00BF00380040000C01404C
:100990000008014080B582B000AF78600B46FB7064
:1009A000FFF754FF00BF7868022106F035FD0346CB
:1009B000002BF8D0FB789BB27868194606F010FD42
:1009C00000BF7868012106F027FD0346002BF8D010
:1009D000FFF734FF786806F011FD0346DBB21846D6
:1009E0000837BD4680BD00BF80B584B000AFF86059
:1009F000B960FA71BB71FB7963F03F03FB71BB799E
:100A0000012B03D8FB7923F04003FB71FA681A4BE2
:100A10009A4205D119484FF4805106F0C1F803E01D
:100A20001748102106F0BCF8FB79F8681946FFF763
:100A3000B1FF0DE0F868FF21FFF7ACFF03461A464F
:100A4000BB681A70BB79013BBB71BB680133BB60EB
:100A5000BB79002BEED1FA68074B9A4205D10748C3
:100A60004FF4805106F08EF803E00548102106F09F
:100A700089F81037BD4680BD00380040000C0140A9
:100A80000008014080B584B000AFF860B960FA7129
:100A9000BB71FB7903F03F03FB71BB79012B03D9D9
:100AA000FB7943F04003FB71FA68194B9A4205D178
:100AB00018484FF4805106F073F803E016481021EF
:100AC00006F06EF8FB79F8681946FFF763FF0BE054
:100AD000BB681B78F8681946FFF75CFFBB79013BE0
:100AE000BB71BB680133BB60BB79002BF0D1FA68E6
:100AF000074B9A4205D107484FF4805106F042F85F
:100B000003E00548102106F03DF81037BD4680BDD2
:100B100000380040000C01400008014080B586B05C
:100B200000AFF860B9607A6007200721002201F069
:100B300037FC02467B4B1A6007200721022201F096
:100B40002FFC0246784B1A6007200721002201F093
:100B500027FC0246754B1A6007200721002201F08E
:100B60001FFC0246724B1A6003200321002201F091
:100B700017FC02466F4B1A6003200321002201F08C
:100B80000FFC02466C4B1A6007200321002201F083
:100B900007FC0246694B1A6007200321002201F07E
:100BA000FFFB0246664B1A600023FB821EE05D4B92
:100BB0001B685A68B7F916309B0013441A68B7F9D6
:100BC00016309B0013445F4A1A60584B1B685A68E2
:100BD000B7F916309B0013441A68B7F916309B001A
:100BE0001344594A1A60FB8A0133FB82B7F9163065
:100BF000062BDCDD0023BB8222E04E4B1B685A68CB
:100C0000B7F914309B0013441A68B7F914309B00ED
:100C10001344FA68D2F88C201A60474B1B685A6854
:100C2000B7F914309B0013441A68B7F914309B00CD
:100C30001344FA68D2F890201A60BB8A0133BB8251
:100C4000B7F91430022BD8DD03200721002201F070
:100C5000A7FB02463D4B1A6003200721002201F04A
:100C60009FFB02463A4B1A603A4B4FF07E521A6095
:100C700001237B8209E0B7F91220364B4FF00001C7
:100C800043F822107B8A01337B82B7F91230062B9E
:100C9000F1DDFB6800221A60FB684FF000029A60E9
:100CA000FB684FF00002DA60FB684FF000021A6147
:100CB000FB684FF000025A61FB684FF000029A6136
:100CC000FB684FF00002DA61FB684FF000021A6225
:100CD000FB684FF000025A62FB684FF000029A6214
:100CE000BB684FF000021A60BB684FF000025A6008
:100CF000BB684FF000029A60FB685B6818464FF0D3
:100D0000804107F085FB03461A46134B1A60134BCC
:100D10004FF000021A60124B4FF000021A600023DD
:100D20003B825CE0CC0A0020D00A0020D40A0020DC
:100D3000A00A0020A80A0020AC0A0020A40A002073
:100D40009C0A0020CDCCCC3DBD370635940A00204E
:100D5000980A0020B00A0020900A0020880A00208B
:100D60008C0A0020B7F91030FA681C339B0013443A
:100D70005A68B7F91030F9681C339B000B445B6864
:100D80001046194607F090FA03461A462B4B1B688B
:100D90001046194607F080F903461A46274B1A6099
:100DA000B7F91020FB68203253F82220B7F9101051
:100DB000FB68203153F821301046194607F074FAC9
:100DC00003461A461E4B1B681046194607F064F985
:100DD00003461A461A4B1A603B8A01333B82B7F925
:100DE0001030022BBEDD154B1B68184606F098FE2E
:100DF00002460B461046194608F0AEFD02460B4669
:100E00001046194607F0F2F802460C4B1A600C4BDC
:100E10001B68184606F084FE02460B46104619462B
:100E200008F09AFD02460B461046194607F0DEF818
:100E30000246034B1A601837BD4680BD880A002061
:100E40008C0A0020F0B593B000AFF860B9607A600A
:100E5000FB681B685A1CFB681A60FB685A69954B53
:100E60001B691046194607F015F903461A46924BBE
:100E70001B681046194607F017FA03463B64FB68E7
:100E80009A698C4B5B691046194607F003F90346D3
:100E90001A46894B1B681046194607F005FA0346A7
:100EA000FB63FB68DA69834B9B691046194607F0C0
:100EB000F1F803461A46804B1B681046194607F0A6
:100EC000F3F90346BB637D4B1B685B681B68043307
:100ED0003A6C82F000421A60784B1B685B681B68B2
:100EE0000833FA6B82F000421A60744B1B685B682F
:100EF0001B680C33BA6B82F000421A606F4B1B68A0
:100F00005B6804331B683A6C1A606C4B1B685B6847
:100F100004331B680833BA6B1A60684B1B685B6844
:100F200004331B680C33FA6B82F000421A60634B87
:100F30001B685B6808331B68FA6B1A605F4B1B68A1
:100F40005B6808331B680433BA6B82F000421A6096
:100F50005A4B1B685B6808331B680C333A6C1A6089
:100F6000564B1B685B680C331B68BA6B1A60534B9B
:100F70001B685B680C331B680433FA6B1A604F4BB9
:100F80001B685B680C331B6808333A6C82F00042C4
:100F90001A604A4B1B685B681B6803F11004454BE1
:100FA0005A68454B1B681046194607F07DF9034601
:100FB0002360424B1B685B681B6803F114043D4BC4
:100FC0009A683D4B1B681046194607F06DF90346B9
:100FD00023603A4B1B685B681B6803F11804354BB0
:100FE000DA68354B1B681046194607F05DF9034671
:100FF0002360324B1B685B6804331B6803F11004E9
:101000002C4B1B6883F000422B4B1B681046194683
:1010100007F04AF903462360284B1B685B680433DA
:101020001B6803F11404234BDA68234B1B6810463A
:10103000194607F039F903462360204B1B685B68AB
:1010400004331B6803F118041A4B9B6883F00042B9
:10105000194B1B681046194607F026F90346236012
:10106000164B1B685B6808331B6803F11004114BB7
:10107000DB6883F00042104B1B681046194607F0EE
:1010800013F9034623600D4B1B685B6808331B682C
:1010900003F11404074B1B6883F00042064B1B68E6
:1010A0001046194607F000F903462360034B1B68FE
:1010B00006E000BFB00A0020900A0020D00A0020FD
:1010C0005B6808331B6803F11804744B5A68744B4F
:1010D0001B681046194607F0E7F803462360714B7A
:1010E0001B685B680C331B6803F110046B4B9A6838
:1010F0006B4B1B681046194607F0D6F80346236071
:10110000684B1B685B680C331B6803F11404634B6A
:101110005B6883F00042624B1B681046194607F07B
:10112000C3F8034623605F4B1B685B680C331B6886
:1011300003F11804594B1B6883F00042584B1B689D
:101140001046194607F0B0F803462360534B1C685D
:10115000524B5B681846396C07F0A6F803462046E8
:10116000194606F097FF03461C464C4B9B681846F1
:10117000F96B07F099F803462046194606F08AFFF6
:1011800003461C46454BDB681846B96B07F08CF8E4
:1011900003462046194606F07DFF03467B623F4B1F
:1011A0005C683E4B1B681846396C07F07DF80346B7
:1011B0002046194606F070FF03461C46374BDB6895
:1011C0001846F96B07F070F803462046194606F0FA
:1011D00061FF03461C46314B9B681846B96B07F00C
:1011E00063F803462046194606F056FF0346BB62E5
:1011F0002A4B9C68294BDB681846396C07F054F879
:1012000003462046194606F047FF03461C46234B7B
:101210001B681846F96B07F047F803462046194645
:1012200006F03AFF03461C461C4B5B681846B96B38
:1012300007F03AF803462046194606F02BFF03460E
:10124000FB62164BDC68154B9B681846396C07F03F
:101250002BF803462046194606F01CFF03461C46A1
:101260000E4B5B681846F96B07F01EF803462046E4
:10127000194606F011FF03461C46084B1B6818462A
:10128000B96B07F011F803462046194606F004FF33
:1012900003463B6300237B6414E000BFB00A0020D8
:1012A000900A0020D00A00207B6C9B0007F14802C6
:1012B000134453F8241C974B7A6C43F822107B6C30
:1012C00001337B647B6C032BEEDD934B1868934BEF
:1012D0001968934B1A68934B1B6800F025FF024670
:1012E000904B1A608F4B1A688B4B1B68104619463F
:1012F00001F044F9FB681B6803F00103002B40F088
:101300005F83894B1B68184606F00AFC02460B46B1
:10131000104619464FF000024FF0404306F054FCCF
:1013200002460B4614461D467A4B5A68794BDB68D9
:101330001046194606F0B8FF03461E46754B1A685C
:10134000744B9B681046194606F0AEFF03463046C4
:10135000194606F09FFE0346184606F0E1FB0246DA
:101360000B462046294606F02FFC02460B46104647
:10137000194606F03BFE03467B616B4B1B68184623
:1013800006F0CEFB02460B46104619464FF000020F
:101390004FF0404306F018FC02460B4614461D462B
:1013A0005C4B1A685B4B5B681046194606F07CFF85
:1013B00003461E46574B9A68564BDB681046194643
:1013C00006F072FF03463046194606F065FE0346F6
:1013D000184606F0A5FB02460B462046294606F0B5
:1013E000F3FB02460B461046194606F0FFFD034686
:1013F000BB614D4B1B6883F00044464B1A68454B5C
:101400001B681046194606F04FFF03461D46414B28
:101410005A68404B5B681046194606F045FF034684
:101420002846194606F036FE03461D46394B9A6893
:10143000384B9B681046194606F036FF034628468F
:10144000194606F027FE03461D46324BDA68314B3B
:10145000DB681046194606F027FF03462846194662
:1014600006F01AFE03462046194606F01DFF034605
:10147000FB612E4B1B685B681E682B4B1B68184674
:1014800006F04EFB02460B461046194606F0EAF9F6
:1014900002460B4614461D461E4B9B68184606F036
:1014A0003FFB02460B462046294606F08DFB0246CE
:1014B0000B461046194606F099FD034633601B4B58
:1014C0001B685B681B681E1D174B1B68184606F0DF
:1014D00027FB02460B46104619464FF000024FF01C
:1014E000404306F071FB02460B4614461D46094B6D
:1014F000DB68184606F014FB02460B4620462946D8
:1015000006F062FB02460B461046194606F06EFDD9
:1015100003460DE0B00A0020CC0A0020D00A0020CB
:10152000D40A0020A00A0020880A0020940A002083
:1015300033609A4B1B685B681B6803F10806984B85
:101540001B68184606F0ECFA02460B461046194690
:1015500006F088F902460B4614461D46914B1B685F
:10156000184606F0DDFA02460B462046294606F0EC
:101570002BFB02460B461046194606F037FD034684
:101580003360864B1B685B681B6803F10C06844B59
:101590001B68184606F0C4FA02460B461046194668
:1015A0004FF000024FF0404306F00EFB02460B46A0
:1015B00014461D467B4B5B68184606F0B1FA02469E
:1015C0000B462046294606F0FFFA02460B46104617
:1015D000194606F00BFD03463360704B1B685B68D1
:1015E00004331E686E4B1B68184606F099FA0246D3
:1015F0000B46104619464FF000024FF0404306F0EC
:10160000E3FA02460B4614461D46664B5B681846D5
:1016100006F086FA02460B462046294606F0D4FA22
:1016200002460B461046194606F0E0FC03463360BE
:101630005A4B1B685B6804331B681E1D584B1B68A4
:10164000184606F06DFA02460B46104619464FF052
:1016500000024FF0404306F0B7FA02460B4614462C
:101660001D46504B1B68184606F05AFA02460B46B8
:101670002046294606F0A8FA02460B4610461946AF
:1016800006F0B4FC03463360444B1B685B680433CC
:101690001B6803F10806424B1B68184606F040FA27
:1016A00002460B46104619464FF000024FF04043E9
:1016B00006F08AFA02460B4614461D46394BDB6893
:1016C000184606F02DFA02460B462046294606F03B
:1016D0007BFA02460B461046194606F087FC034685
:1016E00033602E4B1B685B6804331B6803F10C06E8
:1016F0002B4B1B68184606F013FA02460B461046A1
:1017000019464FF000024FF0404306F05DFA0246E2
:101710000B4614461D46234B9B68184606F000FAFC
:1017200002460B462046294606F04EFA02460B4674
:101730001046194606F05AFC03463360174B1B68E7
:101740005B6808331E68164B1B68184606F0E8F9FC
:1017500002460B46104619464FF000024FF0404338
:1017600006F032FA02460B4614461D460D4B1B6826
:10177000184606F0D5F902460B462046294606F0E3
:1017800023FA02460B461046194606F02FFC034684
:101790003360024B1B685B68083305E0940A002045
:1017A000880A0020B00A00201B681E1D434B1B68DE
:1017B000184606F0B5F902460B461046194606F0E3
:1017C00051F802460B4614461D463D4B5B681846D1
:1017D00006F0A6F902460B462046294606F0F4F923
:1017E00002460B461046194606F000FC03463360DD
:1017F000344B1B685B6808331B6803F108062F4BEA
:101800001B68184606F08CF902460B46104619462E
:1018100006F028F802460B4614461D46284B9B68E6
:10182000184606F07DF902460B462046294606F08A
:10183000CBF902460B461046194606F0D7FB034685
:101840003360204B1B685B6808331B6803F10C0690
:101850001A4B1B68184606F063F902460B46104601
:1018600019464FF000024FF0404306F0ADF9024632
:101870000B4614461D46124BDB68184606F050F91D
:1018800002460B462046294606F09EF902460B46C4
:101890001046194606F0AAFB034633600A4B186847
:1018A000084B1968094B1A68094B1B6800F068FC63
:1018B0000246074B1A6000237B6469E0880A002017
:1018C000B00A0020940A0020CC0A0020A80A0020B8
:1018D000A40A0020944B7A6C53F82240934B1B6867
:1018E0005A687B6C9B0013441B681D68FB689A68F0
:1018F0007B691046194606F0CDFB0346284619467B
:1019000006F0D2FC03461D46884B1B685A687B6C68
:101910009B0013441B6804331E68FB68DA68BB69CC
:101920001046194606F0B6FB03463046194606F047
:10193000BBFC03462846194606F0AEFB03461D468F
:101940007A4B1B685A687B6C9B0013441B680833F6
:101950001E68FB681A69FB691046194606F09AFB77
:1019600003463046194606F09FFC034628461946B2
:1019700006F092FB03462046194606F08DFB03460F
:101980001946694B7A6C43F822107B6C01337B64F7
:101990007B6C062B9EDD664B1868644B1968654BA3
:1019A0001A68654B1B6800F03FFC0246624B1A60E8
:1019B000614B1A685E4B1B681046194600F0DEFD4D
:1019C000FB681B6803F00103002B40F03982564B83
:1019D0001A68554B1B681046194606F065FC03460D
:1019E0001C46514B5A68504B5B681046194606F02E
:1019F0005BFC03462046194606F04EFB03461C4698
:101A0000494B9A68484B9B681046194606F04CFCB7
:101A100003462046194606F03DFB03461C46424B52
:101A2000DA68414BDB681046194606F03DFC034678
:101A30002046194606F02EFB03461A463F4B1B680C
:101A40001046194606F030FC03467B613B4B1B6891
:101A50001846194606F020FB03461C46324B5A68CE
:101A6000314B9B681046194606F01EFC03461D4686
:101A70002D4BDA682C4B1B681046194606F014FCF7
:101A800003462846194606F005FB0346204619463C
:101A900006F00AFC0346BB61284B1B681846194632
:101AA00006F0FAFA03461C461F4B5A681E4BDB68C9
:101AB0001046194606F0F8FB03461D461A4B9A6875
:101AC000194B1B681046194606F0EEFB03462846E4
:101AD000194606F0E1FA03462046194606F0E4FBF3
:101AE0000346FB61164B1B685B681C68134B1B6845
:101AF0001846194606F0D0FA03461A460A4B1B68E8
:101B00001046194606F0D0FB034623600C4B1B68B9
:101B10005B681B681C1D094B1B681846194606F0BC
:101B2000BBFA03460EE000BFB00A0020A40A002062
:101B3000CC0A0020940A0020A00A00208C0A002071
:101B4000980A00201A467D4B5B681046194606F03D
:101B5000ABFB034623607A4B1B685B681B6803F191
:101B60000804784B1B6818464FF0404106F09CFB78
:101B700003461A46714B9B681046194606F094FBC3
:101B8000034623606E4B1B685B681B6803F10C0403
:101B90006C4B1B6818464FF0404106F085FB03462E
:101BA0001A46664BDB681046194606F07DFB034675
:101BB0002360634B1B685B6804331C68614B1B68C4
:101BC00018464FF0404106F06FFB03461A465B4B48
:101BD000DB681046194606F067FB03462360584B46
:101BE0001B685B6804331B681C1D564B1B6818463A
:101BF000194606F051FA03461A46504B9B681046A8
:101C0000194606F051FB034623604D4B1B685B6889
:101C100004331B6803F108044A4B1B681846194635
:101C200006F03AFA03461A46444B5B6810461946DA
:101C300006F03AFB03462360414B1B685B680433A4
:101C40001B6803F10C043F4B1B6818464FF04041E2
:101C500006F02AFB03461A46384B1B681046194605
:101C600006F022FB03462360354B1B685B68083394
:101C70001C68344B1B681846194606F00DFA0346DB
:101C80001A462E4B9B681046194606F00DFB03467C
:101C900023602B4B1B685B6808331B681C1D294B9A
:101CA0001B681846194606F0F7F903461A46234BF7
:101CB000DB681046194606F0F7FA03462360204B0E
:101CC0001B685B6808331B6803F108041D4B1B6825
:101CD0001846194606F0E0F903461A46174B1B68EA
:101CE0001046194606F0E0FA03462360144B1B68C1
:101CF0005B6808331B6803F10C04124B1B68184621
:101D0000194606F0C9F903461A460C4B5B681046A3
:101D1000194606F0C9FA034623600B4B1868084BB6
:101D200019680A4B1A680A4B1B6800F029FA024628
:101D3000074B1A6000237B646AE000BFB00A0020F2
:101D4000980A00208C0A0020CC0A0020AC0A00204F
:101D50009C0A0020634B7A6C53F82240624B1B684C
:101D60005A687B6C9B0013441B681D68FB681A6AE9
:101D70007B691046194606F08DF903462846194638
:101D800006F092FA03461D46574B1B685A687B6C57
:101D90009B0013441B6804331E68FB685A6ABB69C6
:101DA0001046194606F076F903463046194606F005
:101DB0007BFA03462846194606F06EF903461D468F
:101DC000494B1B685A687B6C9B0013441B680833A3
:101DD0001E68FB689A6AFB691046194606F05AF9B4
:101DE00003463046194606F05FFA03462846194670
:101DF00006F052F903462046194606F04DF903460F
:101E00001946384B7A6C43F822107B6C01337B64A3
:101E10007B6C062B9EDD354B1868334B1968344BB1
:101E20001A68344B1B6800F0FFF90246314B1A6008
:101E3000304B1A682D4B1B681046194600F09EFB6C
:101E4000284B1A68274B1B681046194606F02CFAD7
:101E500003461C46234B5A68224B5B6810461946C2
:101E600006F022FA03462046194606F015F9034605
:101E70001C461C4B9A681B4B9B681046194606F083
:101E800013FA03462046194606F006F903461C4697
:101E9000144BDA68134BDB681046194606F004FA57
:101EA00003462046194606F0F7F80346184605F0A3
:101EB00037FE02460B461046194607F04DFD024616
:101EC0000B464FF000000C4905F0A8FF02460B46F8
:101ED0001046194606F08AF803467B6300237B64AC
:101EE00025E000BFB00A00209C0A0020CC0A002098
:101EF000980A0020A00A00200000F03F7E4B7A6C78
:101F000053F822301846796B06F0CEF9034619468D
:101F1000794B7A6C43F82210774B7A6C53F8221085
:101F20007B687A6C43F822107B6C01337B647B6C9A
:101F3000032BE3DD704B1A686F4B5B681046194644
:101F400006F0B2F903461C466B4B9A686A4BDB6895
:101F50001046194606F0A8F903462046194606F031
:101F60009BF803461846194606F096F803461846AD
:101F700005F0D6FD04460D465F4B5A685E4B5B6824
:101F80001046194606F090F903461E465A4B9A68C9
:101F9000594B9B681046194606F086F903463046B1
:101FA000194606F079F803461846194606F074F803
:101FB00003464FF07E50194606F06CF8034618466B
:101FC00005F0AEFD02460B462046294607F0C2FC4E
:101FD00002460B461046194606F008F80246BB6852
:101FE0001A60454B5A68444BDB681046194606F0A8
:101FF0005BF903461C46404B1A683F4B9B681046F2
:10200000194606F051F903462046194606F042F8F3
:10201000034618464FF0404106F046F9034618467D
:1020200005F07EFD02460B461046194607F03EFCC1
:1020300002460B461046194605F0D8FF0246BB681B
:102040005A602D4B5A682C4B9B681046194606F077
:102050002BF903461C46284B1A68274BDB681046B1
:10206000194606F021F903462046194606F014F8F1
:1020700003461846194606F00FF80346184605F0C1
:102080004FFD04460D461C4B9A681B4B9B6810463F
:10209000194606F009F903461E46174BDA68164B37
:1020A000DB681046194606F0FFF80346304619462D
:1020B00005F0F2FF03461846194605F0EDFF03460A
:1020C0004FF07E50194605F0E5FF0346184605F02F
:1020D00027FD02460B462046294607F03BFC0246F8
:1020E0000B461046194605F081FF0246BB689A6010
:1020F0004C37BD46F0BD00BFB00A002080B582B0AD
:1021000000AF7860786806F09BFA034618460837F7
:10211000BD4680BD80B582B000AF7860786806F0BB
:1021200097FA0837BD4680BD80B586B000AFF8602D
:10213000B9607A603B60FB681B881AB2FB685B88F9
:102140001BB21046194600F0ABF87861B868F96820
:102150007A6900F00DFB78617869B9683A6800F037
:1021600087FB3860386879683A6800F051FA38605F
:10217000786900F0ABF93B6818461837BD4680BD5A
:1021800080B588B000AFF860B9607A603B60FB68EA
:102190001B881AB2BB681B881BB21046194600F098
:1021A0007FF8F861BB681B881AB2FB695B881BB2B9
:1021B0001046194600F074F8B861F868B968FA6911
:1021C00000F056FBF861B868F969BA6900F0D0FA16
:1021D000B861B8697968BA6900F01AFAB861BB6980
:1021E0001B881AB2BB695B881BB21046194600F007
:1021F00057F87861B869796900F0BAFB7861F869D5
:1022000079693A6800F0B4FA3860F86900F05EF96C
:10221000B86900F05BF9786900F058F93B68184636
:102220002037BD4680BD00BF80B586B000AFF860E6
:10223000B9607A603B60FB681B881AB2FB685B88F8
:102240001BB210461946002200F0AAF87861FB681C
:102250001B881AB2FB685B881BB210461946022223
:1022600000F09EF83861B86879687A6900F080FA01
:102270007861386979697A6900F022FA7861786959
:10228000F9683A6800F074FA3860786900F01EF96D
:10229000386900F01BF93B6818461837BD4680BD09
:1022A00090B585B000AF786039600820FFF726FF51
:1022B000B860BB68002B2DD07B68002B02D03B6838
:1022C000002B01D1002326E07B689AB2BB681A80FC
:1022D0003B689AB2BB685A807B689B001846FFF740
:1022E0000DFF0246BB685A600023FB600EE0BB682E
:1022F0005A68FB689B00D4183B689B001846FFF7A0
:10230000FDFE03462360FB680133FB60FA687B68CF
:102310009A42ECDBBB6818461437BD4690BD00BF3F
:1023200090B585B000AF786039600820FFF7E6FE11
:10233000B860BB68002B2DD07B68002B02D03B68B7
:10234000002B01D1002326E07B689AB2BB681A807B
:102350003B689AB2BB685A807B689B001846FFF7BF
:10236000CDFE0246BB685A600023FB600EE0BB68EE
:102370005A68FB689B00D4183B685B001846FFF75F
:10238000BDFE03462360FB680133FB60FA687B688F
:102390009A42ECDBBB6818461437BD4690BD00BFBF
:1023A00080B588B000AFF860B9607A60FB68002B38
:1023B00002D0BB68002B01D1002353E0F868B96854
:1023C000FFF76EFF78617B69002B4AD07B68003392
:1023D000022B44D80023FB613CE00023BB6132E0C8
:1023E0007B68012B0CD17B695A68FB699B00134405
:1023F0001A68BB699B0013444FF07E521A601FE0BD
:102400007B68022B10D1FA69BB699A420CD17B69B7
:102410005A68FB699B0013441A68BB699B0013440C
:102420004FF07E521A600BE07B695A68FB699B0093
:1024300013441A68BB699B0013444FF000021A60F2
:10244000BB690133BB61BA69BB689A42C8DBFB69EF
:102450000133FB61FA69FB689A42BEDB00BF7B690E
:1024600000E0002318462037BD4680BD80B485B00B
:1024700000AF786039600023FB6019E00023BB6087
:102480000DE07B685A68FB689B0013441A68BB68C0
:102490009B0013443A681A60BB680133BB607B68D9
:1024A0005B881AB2BB689A42EBDCFB680133FB60C5
:1024B0007B681B881AB2FB689A42DFDC7B6818468F
:1024C0001437BD465DF8047B704700BF80B584B00B
:1024D00000AF78607B68002B01D100231DE0002352
:1024E000FB600BE07B685A68FB689B0013441B6829
:1024F0001846FFF70FFEFB680133FB607B681B8803
:102500001AB2FB689A42EDDC7B685B681846FFF7FD
:1025100001FE7868FFF7FEFD012318461037BD461F
:1025200080BD00BF80B584B000AF78607B68002BB1
:1025300001D100231DE00023FB600BE07B685A689B
:10254000FB689B0013441B681846FFF7E3FDFB681C
:102550000133FB607B681B881AB2FB689A42EDDC92
:102560007B685B681846FFF7D5FD7868FFF7D2FDFA
:10257000012318461037BD4680BD00BF80B485B02A
:1025800000AF786039607B681A883B681B8812B29C
:102590001BB29A4207D17B685A883B685B8812B2AB
:1025A0001BB29A4201D000232CE00023FB6022E002
:1025B0000023BB6016E03B685A68FB689B0013442D
:1025C0001A68BB689B0013447A685168FA689200E5
:1025D0000A441168BA6892000A4412681A60BB681B
:1025E0000133BB607B685B881AB2BB689A42E2DC4D
:1025F000FB680133FB607B681B881AB2FB689A4258
:10260000D6DC3B6818461437BD465DF8047B70473E
:1026100090B587B000AFF860B9607A607B681A88BF
:10262000FB681B8812B21BB29A4207D17B685A889A
:10263000BB685B8812B21BB29A4201D000233BE018
:1026400000237B6131E000233B6125E07B685A6811
:102650007B699B0013441A683B699B00D418FB6894
:102660005A687B699B0013441A683B699B001344BA
:102670001A68BB6859687B699B000B4419683B6901
:102680009B000B441B681046194605F005FD0346E8
:1026900023603B6901333B61FB685B881AB23B698D
:1026A0009A42D3DC7B6901337B61FB681B881AB2D9
:1026B0007B699A42C7DC7B6818461C37BD4690BDD3
:1026C00090B587B000AFF860B9607A60FB681A888F
:1026D0007B681B8812B21BB29A4207D1FB685A88EA
:1026E0007B685B8812B21BB29A4201D000233BE0A8
:1026F00000237B6131E000233B6125E07B685A6861
:102700007B699B0013441A683B699B00D418FB68E3
:102710005A687B699B0013441A683B699B00134409
:102720001A68BB6859687B699B000B4419683B6950
:102730009B000B441B681046194605F0ABFC034692
:1027400023603B6901333B61FB685B881AB23B69DC
:102750009A42D3DC7B6901337B61FB681B881AB228
:102760007B699A42C7DC7B6818461C37BD4690BD22
:10277000B0B588B000AFF860B9607A607B681A883D
:10278000FB681B8812B21BB29A4207D17B685A8839
:10279000BB685B8812B21BB29A4201D0002362E090
:1027A0000023FB6158E00023BB614CE000237B6108
:1027B0007B685A68FB699B0013441A68BB699B00DD
:1027C00013444FF000021A6034E07B685A68FB69DA
:1027D0009B0013441A68BB699B00D4187B685A6835
:1027E000FB699B0013441A68BB699B0013441D6876
:1027F000FB685A68FB699B0013441A687B699B005D
:1028000013441A68BB6859687B699B000B441968BC
:10281000BB699B000B441B681046194605F044FD3C
:1028200003462846194605F037FC034623607B69BA
:1028300001337B61FB685B881AB27B699A42C4DC16
:10284000BB690133BB61BB685B881AB2BB699A4242
:10285000ACDCFB690133FB61FB681B881AB2FB69C6
:102860009A42A0DC7B6818462037BD46B0BD00BF49
:10287000B0B588B000AFF860B9607A607B681A883C
:10288000FB681B8812B21BB29A4207D17B685A8838
:10289000BB681B8812B21BB29A4201D0002362E0CF
:1028A0000023FB6158E00023BB614CE000237B6107
:1028B0007B685A68FB699B0013441A68BB699B00DC
:1028C00013444FF000021A6034E07B685A68FB69D9
:1028D0009B0013441A68BB699B00D4187B685A6834
:1028E000FB699B0013441A68BB699B0013441D6875
:1028F000FB685A68FB699B0013441A687B699B005C
:1029000013441A68BB685968BB699B000B4419687B
:102910007B699B000B441B681046194605F0C4FCFC
:1029200003462846194605F0B7FB034623607B693A
:1029300001337B61FB685B881AB27B699A42C4DC15
:10294000BB690133BB61BB681B881AB2BB699A4281
:10295000ACDCFB690133FB61FB681B881AB2FB69C5
:102960009A42A0DC7B6818462037BD46B0BD00BF48
:1029700080B58AB002AF786039607B685B881BB233
:10298000BB617B681B881BB27B61BA697B699A4219
:1029900001D0002363E07869B969FFF781FC3861F1
:1029A0003B69002B01D1002359E07869B969FFF731
:1029B00077FCF860FB68002B01D100234FE07869B9
:1029C0000121FFF7ADFCB860BB68002B01D10023EB
:1029D00045E078683969FFF7D1FD3869B96800F0DA
:1029E00043F80346B3F1FF3F0AD13869FFF76EFDA4
:1029F000F868FFF76BFDB868FFF794FD00232EE041
:102A00000023FB6118E0F8684FF00001FFF72EFD8E
:102A1000FB685A68FB699B0013441B684FF07E52A9
:102A20001A60FB6900933869F968BA683B6800F07E
:102A300081F9FB690133FB61FA69BB699A42E2DB08
:102A40003869FFF743FDF868FFF740FDB868FFF706
:102A500069FD3B68002B01D1002300E03B6818466C
:102A60002037BD4680BD00BFB0B58CB000AF7860E8
:102A700039600023FB617B685B881BB23B610023EC
:102A8000FB620BE03B685A68FB6A9B0013441B68BF
:102A9000FA6A92B21A80FB6A0133FB62FA6A3B69F6
:102AA0009A42EFDB00237B623AE17B6AFB627B6A3E
:102AB0003B624FF00003BB614DE07B685A683B68A6
:102AC0005968FB6A9B000B441B681B881BB29B0068
:102AD00013441A687B6A9B0013441B6818464FF026
:102AE000000105F09DFD0346002B12D07B685A685B
:102AF0003B685968FB6A9B000B441B681B881BB230
:102B00009B0013441A687B6A9B0013441B687B611B
:102B100013E07B685A683B685968FB6A9B000B446A
:102B20001B681B881BB29B0013441A687B6A9B00BE
:102B300013441B6883F000437B617869B96905F031
:102B40006FFD0346002B03D07B69BB61FB6A3B62D0
:102B5000FB6A0133FB62FA6A3B699A42ADDB7A6A2F
:102B60003B6A9A4220D0FB690133FB613B685A689B
:102B70007B6A9B0013441B681B88FB813B685A6877
:102B80007B6A9B0013441B683A6851683A6A92005A
:102B90000A44126812881A803B685A683B6A9B0094
:102BA00013441B68FA891A807B685A683B68596825
:102BB0007B6A9B000B441B681B881BB29B00134461
:102BC0001A687B6A9B0013441B6818464FF000018B
:102BD00005F0FEFC0346002B02D04FF0FF33A5E0CA
:102BE0007B6A0133FB6293E07B685A683B685968F3
:102BF000FB6A9B000B441B681B881BB29B001344A1
:102C00001A687B6A9B00D4187B685A683B685968CD
:102C1000FB6A9B000B441B681B881BB29B00134480
:102C20001A687B6A9B0013441A687B6859683B6882
:102C300058687B6A9B0003441B681B881BB29B007F
:102C40000B4419687B6A9B000B441B6810461946AD
:102C500005F0DEFB034623607B6A0133BB6250E074
:102C60007B685A683B685968FB6A9B000B441B6889
:102C70001B881BB29B0013441A68BB6A9B00D418C4
:102C80007B685A683B685968FB6A9B000B441B6869
:102C90001B881BB29B0013441A68BB6A9B00134439
:102CA0001D687B685A683B685968FB6A9B000B4447
:102CB0001B681B881BB29B0013441A687B6A9B002D
:102CC00013441A687B6859683B6858687B6A9B00A4
:102CD00003441B681B881BB29B000B441968BB6A2A
:102CE0009B000B441B681046194605F0DDFA0346AD
:102CF0002846194605F0CEF903462360BB6A013326
:102D0000BB62BA6A3B699A42AADBFB6A0133FB6287
:102D1000FA6A3B699A42FFF667AF7B6A01337B62CE
:102D20007A6A3B699A42FFF6C0AEFB6918463037B3
:102D3000BD46B0BDB0B58AB000AFF860B9607A608A
:102D40003B60FB685B881BB27B610023FB6152E048
:102D5000FB6901337B6247E0BB685A687B6859684E
:102D60007B6A9B000B441B681B881BB29B001344AF
:102D70001C68BB685A687B6859687B6A9B000B4477
:102D80001B681B881BB29B0013441B681D68FB68F3
:102D90005A687B6859687B6A9B000B441B681B88D8
:102DA0001BB29B0013441A68FB699B0013441A680A
:102DB000BB6859687B685868FB699B0003441B68C3
:102DC0001B881BB29B000B441B681B6810461946EE
:102DD00005F06AFA03462846194605F05BF90346F2
:102DE00023607B6A01337B627A6A7B699A42B3DB38
:102DF000FB690133FB61FA697B699A42A8DB3B6896
:102E00005A687B6903F18043013B9B0013441A68B5
:102E1000BB6B9B00D418BB685A687B6859687B6998
:102E200003F18043013B9B000B441B681B881BB2D2
:102E30009B0013441B681A68FB6859687B685868D4
:102E40007B6903F18043013B9B0003441B681B88A3
:102E50001BB29B000B4419687B6903F18043013B63
:102E60009B000B441B681046194605F0D1FA034637
:102E700023607B69023BFB616AE04FF00003BB61AA
:102E8000FB6901333B6228E0FB685A687B6859683C
:102E9000FB699B000B441B681B881BB29B001344FF
:102EA0001A683B6A9B0013441A683B6859683B6A7E
:102EB0009B000B441968BB6B9B000B441B681046BE
:102EC000194605F0F1F90346B869194605F0E4F82A
:102ED0000346BB613B6A01333B623A6A7B699A42B3
:102EE000D2DBBB685A687B685968FB699B000B445E
:102EF0001B681B881BB29B0013441B681B68184689
:102F0000B96905F0C7F803463B613B685A68FB693D
:102F10009B0013441A68BB6B9B00D418FB685A686B
:102F20007B685968FB699B000B441B681B881BB2BC
:102F30009B0013441A68FB699B0013441B683869A3
:102F4000194605F065FA03462360FB69013BFB6106
:102F5000FB69002B91DA3B6818462837BD46B0BDA7
:102F600080B582B000AF0346FB80FB88002B05D103
:102F7000084B1B6801221A82002306E0064B1B68DF
:102F80001B689847034B1B680A3318460837BD4631
:102F900080BD00BF080B0020040B002080B500AFEF
:102FA0000F4B1B68DA780F4B5B789A4215D80C4BA5
:102FB0001B689B78002B10D1094B1B689B88002B4A
:102FC0000BD1074B1B68064A1268D2789A72064BDF
:102FD0001B685B689847002300E00223184680BD09
:102FE000080B002060000020040B002080B582B098
:102FF00000AF0346FB80FB88002B05D1084B1B6804
:1030000001221A82002306E0064B1B689B68984742
:10301000034B1B680C3318460837BD4680BD00BF04
:10302000080B0020040B002080B582B000AF1E4BBF
:103030001B689B691D4A126851791C4A1268D27834
:103040000846114698470346FB71184B1B689B7A4C
:10305000002B23D0FB79002B09D1144B1B681B7963
:10306000002B04D1114B1B689B78002B01D002234D
:1030700015E0FB79002B11D10D4B1B68DB689847DD
:103080000A4B1B68094A12685279DA72074B1B68AF
:10309000064A1268D2781A73002300E00223184609
:1030A0000837BD4680BD00BFE00A0020080B0020A5
:1030B000040B002080B584B000AF0346FB80FB8882
:1030C000002B05D1464B1B6802221A82002383E0A5
:1030D000444B00221A80424B1B681B7803F07F038D
:1030E000002B2CD13E4B1B685B7AFB73FB7B03F000
:1030F0002003002B07D03B4B1B7843F00203DAB2CE
:10310000384B1A7006E0374B1B7823F00203DAB213
:10311000344B1A70FB7B03F04003002B07D0314B7C
:103120001B7843F00103DAB22E4B1A704FE02D4B9F
:103130001B7823F00103DAB22A4B1A7047E0284BC0
:103140001B681B7803F07F03012B01D1254B43E063
:10315000234B1B681B7803F07F03022B35D1204BD8
:103160001B685B79BB73BB7B03F00F037B73BB7B7B
:103170005BB2002B13DA7B7B9B0003F1804303F5EA
:10318000B8431B689BB203F03003102B1CD1154BC6
:103190001B7843F00103DAB2124B1A7017E07B7B05
:1031A0009B0003F1804303F5B8431B689BB203F413
:1031B0004053B3F5805F07D10A4B1B7843F00103FE
:1031C000DAB2084B1A7002E001E0002304E0064B7B
:1031D0001B681B699847034B18461037BD4680BDD6
:1031E000080B0020D80A0020040B002090B587B0FF
:1031F00000AF6F4B1B681B7803F07F033B613B699B
:10320000002B0AD16A4B1B68694A1268527A22F075
:103210002002D2B25A720023C6E03B69022B40F072
:10322000C280634B1B685B88002B04D1604B1B681A
:103230001B79002B01D00223B6E05E4BFB605C4B98
:103240001B685B79BB60BB6823F080037B607B6895
:103250003B60574B1B685B79DBB25BB2002B0BDA30
:103260003B689B0003F1804303F5B8431B689BB2A6
:1032700003F030037B610AE03B689B0003F180436D
:1032800003F5B8431B689BB203F440537B61FB68B2
:103290001B781A467B689A4207D97B69002B04D0B9
:1032A000434B1B689B7A002B01D102237CE0BB6857
:1032B00003F08003002B17D03B689B0003F1804391
:1032C00003F5B8431B689BB203F03003102B64D1A5
:1032D0003B68DBB2184601F005F93B68DBB21846E3
:1032E000302101F015F858E03B689B0003F1804362
:1032F00003F5B8431B689BB203F44053B3F5805FFA
:103300004BD13B68002B26D13B68DAB22A4B93F8AD
:103310002C301046194601F0A7F93B689B0003F1D9
:10332000804303F5B8431B689BB223F4804323F02A
:1033300070039CB284F480539CB284F400539CB21A
:103340003B689B0003F1804303F5B8431B4A2243CB
:1033500092B21A6021E03B68DBB2184601F094F8A3
:103360003B689B0003F1804303F5B8431B689BB2A5
:1033700023F4804323F070039CB284F480539CB206
:1033800084F400539CB23B689B0003F1804303F537
:10339000B8430A4A224392B21A60094B1B685B6920
:1033A0009847002300E0022318461C37BD4690BD15
:1033B000080B002060000020640000208080FFFFD8
:1033C000040B002090B585B000AF404B1B685B79C3
:1033D000BB60BB6823F080037B607B683B603B4B3A
:1033E0001B685B79DBB25BB2002B0BDA3B689B009E
:1033F00003F1804303F5B8431B689BB203F030032D
:10340000FB600AE03B689B0003F1804303F5B8438F
:103410001B689BB203F44053FB602D4B1B781A468C
:103420003B689A420CD9294B1B685B88002B07D15B
:10343000FB68002B04D0254B1B689B7A002B01D125
:1034400002233EE0BB6803F08003002B1AD03B68E8
:103450009B0003F1804303F5B8431B689BB223F440
:10346000E04323F040039CB284F010039CB23B681D
:103470009B0003F1804303F5B843164A224392B2FE
:103480001A6019E03B689B0003F1804303F5B843E1
:103490001B689BB223F4804323F070039CB284F436
:1034A00080539CB23B689B0003F1804303F5B84313
:1034B000084A224392B21A60074B1B689B699847DF
:1034C000002318461437BD4690BD00BF080B0020EE
:1034D000600000208080FFFF040B002080B500AF5B
:1034E000074B1B68064A1268527A42F02002D2B299
:1034F0005A72044B1B68DB6998470023184680BD4D
:10350000080B0020040B002080B485B000AF0346F8
:103510003960FB800D4B1B685B8AFB60FB88002BCE
:103520000AD10A4B1B683A689188FA6892B28A1AE3
:1035300092B21A82002303E03B681A68FB681344C6
:1035400018461437BD465DF8047B7047080B002011
:1035500080B584B000AF3A4B1B681033BB60BB68CA
:103560001B887B60BB689B68002B2ED07B68002B80
:103570002BD0BB689B88FB60FA687B689A4201D9B4
:103580007B68FB60BB689B68FA6892B210469847FC
:103590003860BB681A88FB689BB2D31A9AB2BB68C2
:1035A0001A80BB685A88FB689BB213449AB2BB6806
:1035B0005A80002001F020F803461A46FB689BB2AF
:1035C000386811461A4600F03FFEBB681B88002B86
:1035D0000AD01C4B4FF440521A800020002101F009
:1035E00027F8194B30221A80BB681A88BB689B8861
:1035F0009A4204D3124B1B6803221A721CE0BB6868
:103600001B88002B04D00E4B1B6805221A7213E096
:10361000BB681B88002B0FD1094B1B6806221A724E
:103620000A4B1B689BB21A46094B13445B000022ED
:103630001A60054B30221A801037BD4680BD00BF8E
:10364000080B00200E0B0020100B0020505C0040E7
:103650000230002080B586B000AF3B4B1B681033B2
:10366000FB60FB681B88BB60374B1B681B7A7B6168
:10367000BB68002B1ED17B69042B1BD1334B1B78FD
:10368000012B11D1324B1B689BB21A46314B1344AC
:103690005B0000221A60304B30221A8004237B61C9
:1036A0002A4B00221A7046E007237B612A4B102226
:1036B0001A8040E0FB689B883B61BA683B699A428C
:1036C00001D8042300E002237B613A69BB689A4277
:1036D00001D9BB683B61FB689B683A6992B21046AE
:1036E00098477860002000F06BFF03461A463B695C
:1036F0009BB2786811461A4600F06CFD3B699BB29C
:103700000020194600F094FFFB681A883B699BB2C1
:10371000D31A9AB2FB681A80FB685A883B699BB23D
:1037200013449AB2FB685A800B4B30221A800B4B21
:103730004FF440521A80044B1B687A69D2B21A7255
:103740001837BD4680BD00BF080B0020E8090020E7
:10375000505C004002300020100B00200E0B0020B7
:1037600080B584B000AF0223FB735D4B1B685B78B0
:103770007B605B4B1B681B7803F07F03002B57D1EA
:103780007B68092B04D1FFF709FC0346FB7377E044
:103790007B68052B1BD1524B1B68DB78DBB25BB21D
:1037A000002B0EDB4E4B1B689B78002B09D14C4B3A
:1037B0001B689B88002B04D1494B1B689B7A002B0C
:1037C00002D00823BB6081E00023FB7358E07B68D4
:1037D000032B11D1424B1B68DB78012B09D1404BE5
:1037E0001B689B88002B04D1FFF778FE0346FB7310
:1037F00046E00223FB7343E07B68012B40D1384B4A
:103800001B68DB78012B10D1354B1B689B88002B84
:103810000BD1334B1B685B7A03F02003002B04D0E1
:10382000FFF7E4FC0346FB732AE00223FB7327E067
:103830002B4B1B681B7803F07F03012B07D17B68A0
:103840000B2B1DD1FFF7F0FB0346FB7318E0244B55
:103850001B681B7803F07F03022B0FD17B68012BC1
:1038600004D1FFF7C3FC0346FB7309E07B68032B1D
:1038700006D1FFF7A7FD0346FB7301E00223FB73AC
:10388000FB7B002B0ED0174B1B685B697A68D2B2AA
:10389000104698470346FB73FB7B032B02D1092399
:1038A000BB6013E0FB7B002B02D00823BB600DE064
:1038B0000623BB600C4B1B689BB21A460B4B134490
:1038C0005B0000221A600A4B30221A80044B1B68EE
:1038D000BA68D2B21A7200BF1037BD4680BD00BFB1
:1038E000080B0020E00A0020505C0040023000205D
:1038F000100B002080B58AB000AF934B1B685B783B
:10390000BB6100237B6200237B61BB69062B23D153
:103910008D4B1B681B7803F07F03002B1BD18A4B58
:103920001B689B78FB74FB7C012B04D1874B1B68C5
:10393000DB697B620FE0FB7C022B04D1834B1B68AD
:103940001B6A7B6207E0FB7C032B04D17F4B1B6867
:103950005B6A7B62B6E0B5E0BB69002B79D17A4B3C
:103960001B685B88002B74D1774B1B68DB88022BAC
:103970006FD1754B1B681B79002B6AD1724B1B688A
:103980001B7803F07F03002B07D16F4B1B689B88CC
:10399000002B02D16E4B7B625AE06B4B1B681B788D
:1039A00003F07F03012B13D1684B1B689B69664AA8
:1039B000126852791046002198470346002B47D1E0
:1039C000614B1B689B7A002B42D0614B7B6279E094
:1039D0005D4B1B681B7803F07F03022B38D15A4BD9
:1039E0001B685B7903F00F03FB60574B1B685B7927
:1039F00003F07003BB60544B1B685B79DBB25BB2B6
:103A0000002B0BDAFB689B0003F1804303F5B843FE
:103A10001B689BB203F03003FB610AE0FB689B006C
:103A200003F1804303F5B8431B689BB203F4405392
:103A3000FB61484B1B781A46FB689A4208D9BB6861
:103A4000002B05D1FB69002B02D0414B7B6239E092
:103A500038E0BB69082B09D13B4B1B681B7803F08E
:103A60007F03002B2ED13C4B7B622BE0BB690A2BE2
:103A700028D1354B1B681B7803F07F03012B21D124
:103A8000314B1B689B7A002B1CD02F4B1B685B882B
:103A9000002B17D12C4B1B681B79002B12D12A4B02
:103AA0001B68DB88012B0DD1284B1B689B69264ABC
:103AB000126852791046002198470346002B01D125
:103AC000264B7B627B6A002B0FD01F4B1B687A69E9
:103AD00092B25A821C4B1B687A6A9A617B6A0020F8
:103AE0009847002387F8233013E0184B1B681B69A5
:103AF000154A1268527810469847034687F82330D3
:103B000097F82330032B04D10F4B1B6809221A723C
:103B100077E00D4B1B681A8A4FF6FF739A4204D167
:103B2000094B1B6809221A726BE097F82330022BAD
:103B300004D0054B1B681B8A002B11D1024B1B685C
:103B400008221A725DE000BF080B0020E00A002086
:103B5000B530000860000020612F0008ED2F00083C
:103B6000294B1B681B78DBB25BB2002B40DA264B7B
:103B70001B68DB887B60244B1B681B8A1A467B68AA
:103B80009A4205D9204B1B687A6892B21A8225E0C6
:103B90001D4B1B681A8A1C4B1B68DB889A421DD27E
:103BA000194B1B681A8A194B1B6893F82C309A42E0
:103BB00003D2174B00221A7010E0134B1B681B8AAC
:103BC000124A126892F82C2093FBF2F102FB01F2E8
:103BD0009B1A002B02D10E4B01221A700A4B1B6854
:103BE0000A4A126892F82C209A82FFF733FD07E008
:103BF000054B1B6803221A72064B4FF440521A8081
:103C000000BF2837BD4680BD080B0020E00A002019
:103C1000E80900200E0B002090B583B000AF01230F
:103C2000FB80304B1B689BB21A462F4B13445B0042
:103C30001B689BB25B0003F1804303F5C0433B600C
:103C40002A4B1B681B7A092B37D0284B1A683B6814
:103C5000591C39601B781370244B1A683B68591C37
:103C600039601B7853703A68FB885B0013443B60F3
:103C70001E4B1C683B689A1C3A601B88184600F073
:103C800053FD034663803A68FB885B0013443B6046
:103C9000164B1C683B689A1C3A601B88184600F05B
:103CA00043FD0346A3803A68FB885B0013443B60F6
:103CB0000E4B1B683A681288DA800C4B1B68012295
:103CC0001A720A4B1B68DB88002B02D1FFF748FDF4
:103CD00001E0FFF70FFE00F08DF8034618460C37A1
:103CE000BD4690BD505C004004300020080B002011
:103CF00080B582B000AF1F4B1B681B7A7B607B686E
:103D0000022B02D07B68042B06D1FFF7A3FC194BD2
:103D10001B681B7A7B6021E07B68062B1CD1154B4E
:103D20001B685B78052B10D1124B1B681B7803F0C6
:103D30007F03002B09D10F4B1B68DB78184600F07E
:103D400081F80D4B1B681B6A98470C4B1B689B68DE
:103D5000984708237B6001E008237B60054B1B68C4
:103D60007A68D2B21A7200F045F80346184608374E
:103D7000BD4680BD080B0020040B0020E00A002097
:103D800080B582B000AF194B1B681B7A7B607B68E3
:103D9000022B02D07B68042B02D108237B6018E041
:103DA0007B68032B02D07B68052B06D1FFF7D0FB85
:103DB0000E4B1B681B7A7B600BE07B68072B06D1E0
:103DC0000B4B1B68DB68984708237B6001E00823E6
:103DD0007B60064B1B687A68D2B21A7200F00AF850
:103DE000034618460837BD4680BD00BF080B0020BB
:103DF000E00A002080B500AF0E4B93F82C30002075
:103E0000194600F031FC0C4B1B681B7A082B06D1BD
:103E10000A4B4FF480521A80094B10221A80064B2D
:103E20001B681B7A092B14BF00230123DBB2184641
:103E300080BD00BF64000020080B00200E0B002096
:103E4000100B002080B485B000AF0346FB711A4B05
:103E50001B78BB600023FB601EE0FB68DBB29B00AD
:103E600003F1804303F5B843FA68D2B2920002F13D
:103E7000804202F5B842126892B2114640F60F72C3
:103E80000A4042F4004242F08002F968C9B20A4393
:103E90001A60FB680133FB60FA68BB689A42DCD3A6
:103EA000064BFA7962F07F02D2B21A601437BD462F
:103EB0005DF8047B704700BF600000204C5C004050
:103EC00080B400AFBD465DF8047B704790B583B009
:103ED00000AF0023FB8065E1854B1B889BB2DBB202
:103EE00003F00F03DAB2834B1A70824B1B78002B5E
:103EF00040F00A81804B1B689AB2804B1A807F4B3E
:103F00001B889BB203F030039AB27D4B1A807B4B27
:103F10001B889BB203F440539AB2784B1A80764BBD
:103F20001B689BB24BF6BF741C4084F4005484F0B1
:103F30002004714AA1B2734B0B439BB213606C4BCC
:103F40001B889BB203F01003002B3FD16A4A6A4BD7
:103F50001B689BB2194648F60F730B401360FFF7BE
:103F6000C7FE654B1B689BB24BF6BF741C40634B8E
:103F70001B889BB203F480539BB2002B01D084F4C6
:103F800080545E4B1B889BB203F400539BB2002B02
:103F900001D084F400545A4B1B889BB203F01003E9
:103FA0009BB2002B01D084F01004554B1B889BB2B0
:103FB00003F020039BB2002B01D084F020044E4A72
:103FC000A1B2504B0B439BB21360F6E04A4B1B6807
:103FD0009BB2FB80FB889BB203F40063002B3FD0B5
:103FE000454A454B1B689BB2194640F68F730B4000
:103FF0001360FFF711FE404B1B689BB24BF6BF747A
:104000001C403E4B1B889BB203F480539BB2002B99
:1040100001D084F48054394B1B889BB203F40053C5
:104020009BB2002B01D084F40054354B1B889BB20B
:1040300003F010039BB2002B01D084F01004304B2E
:104040001B889BB203F020039BB2002B01D084F0AD
:104050002004294AA1B22B4B0B439BB21360ACE066
:10406000FB889BB29BB21BB2002B80F29B80224A42
:10407000214B1B689BB2194640F68F730B401360AF
:10408000FFF77EFE1C4B1B689BB24BF6BF741C40B7
:104090001A4B1B889BB203F480539BB2002B01D0B8
:1040A00084F48054154B1B889BB203F400539BB2DD
:1040B000002B01D084F40054114B1B889BB203F0F9
:1040C00010039BB2002B01D084F010040C4B1B8812
:1040D0009BB203F020039BB2002B01D084F020049C
:1040E000054AA1B2074B0B439BB2136065E000BFCA
:1040F000540B0020E40A0020005C00400E0B00205E
:10410000100B00208080FFFF2D4B1B789B0003F1DC
:10411000804303F5B8431B689BB2FB80FB889BB2CE
:104120009BB21BB2002B1BDA254B1B789B0003F1C3
:10413000804303F5B843224A1278920002F180428C
:1041400002F5B842126892B2114640F68F720A40E8
:104150001A601B4B1B785A1E1A4B53F82230984793
:10416000FB889BB203F08003002B1BD0144B1B7801
:104170009B0003F1804303F5B843114A1278920083
:1041800002F1804202F5B842126892B2114648F636
:104190000F720A401A600A4B1B785A1E0A4B53F8DA
:1041A00022309847094B1B689BB2094A1946118077
:1041B0009BB21BB2002BFFF68FAE0C37BD4690BDF5
:1041C000E40A00203C00002020000020445C004065
:1041D000540B002080B489B000AF786013460A46C3
:1041E0007A803B803B8801335B107B617B8803F1E5
:1041F000005303F540535B00BB617B69FB611BE02F
:104200007B681B783B617B6801337B607B681B7834
:104210001B021A463B691343FB60BB699A1CBA61D7
:10422000FA6892B21A80BB690233BB617B680133C2
:104230007B60FB69013BFB61FB69002BE0D124370C
:10424000BD465DF8047B704780B487B000AF7860EE
:1042500013460A467A803B803B8801335B10FB6043
:104260007B8803F1005303F540535B003B61FB681F
:104270007B610EE07B685A1C7A603A69111D3961D6
:10428000126892B21A807B6801337B607B69013BC4
:104290007B617B69002BEDD11C37BD465DF8047B4B
:1042A000704700BF80B483B000AF0346FB80054A6F
:1042B000F9884FF6F8730B4013600C37BD465DF874
:1042C000047B7047505C004080B483B000AF02466E
:1042D0000B46FA71BB80FB799B0003F1804303F529
:1042E000B843FA79920002F1804202F5B8421268AE
:1042F00092B222F4EC4222F0700291B2BA880A43E0
:1043000092B292B21A600C37BD465DF8047B7047DA
:1043100090B482B000AF02460B46FA71BB80FB79C5
:104320009B0003F1804303F5B8431B689BB223F461
:10433000E04323F040039CB2BB8803F010039BB220
:10434000002B02D084F010039CB2BB8803F0200342
:104350009BB2002B02D084F020039CB2FB799B001F
:1043600003F1804303F5B843034A224392B21A6033
:104370000837BD4690BC70478080FFFF90B482B084
:1043800000AF02460B46FA71BB80FB799B0003F13C
:10439000804303F5B8431B689BB223F4804323F0AA
:1043A00070039CB2BB8803F480539BB2002B02D0F5
:1043B00084F480539CB2BB8803F400539BB2002B5F
:1043C00002D084F400539CB2FB799B0003F180433C
:1043D00003F5B843034A224392B21A600837BD4638
:1043E00090BC70478080FFFF90B482B000AF03465E
:1043F000FB71FB799B0003F1804303F5B8431B6815
:104400009BB223F4804323F070039CB284F4805366
:104410009CB284F400539CB2FB799B0003F180436F
:1044200003F5B843034A224392B21A600837BD46E7
:1044300090BC70478080FFFF80B483B000AF03461C
:10444000FB71FB799B0003F1804202F5B842FB79D6
:104450009B0003F1804303F5B8431B689BB223F430
:10446000F8731B051B0D9BB243F07F4343F47F039E
:1044700043F4004343F080039BB29BB213600C37BC
:10448000BD465DF8047B704780B483B000AF03463F
:10449000FB71FB799B0003F1804303F5B8431B6874
:1044A0009BB203F48043002B16D0FB799B0003F1F1
:1044B000804303F5B843FA79920002F1804202F595
:1044C000B842126892B2114640F60F720A4042F4A6
:1044D000404242F080021A600C37BD465DF8047B12
:1044E000704700BF80B483B000AF0346FB71FB7917
:1044F0009B0003F1804303F5B8431B689BB203F0B4
:104500004003002B16D0FB799B0003F1804303F599
:10451000B843FA79920002F1804202F5B84212687B
:1045200092B2114640F60F720A4042F4004242F045
:10453000C0021A600C37BD465DF8047B704700BFAF
:1045400080B483B000AF02460B46FA71BB800B4BC0
:104550001B689BB21A46FB79DB00134403F100533E
:1045600003F540535B00BA88520892B252001A60B9
:104570000C37BD465DF8047B704700BF505C0040BF
:1045800080B483B000AF02460B46FA71BB800A4B81
:104590001B689BB21A46FB79DB001A44074B134495
:1045A0005B00BA88520892B252001A600C37BD46BE
:1045B0005DF8047B704700BF505C00400430002071
:1045C00080B483B000AF0346FB710A4B1B689BB2FB
:1045D0001A46FB79DB00134403F1005303F5405303
:1045E0005B001B689BB218460C37BD465DF8047B28
:1045F000704700BF505C004080B483B000AF0346FA
:10460000FB71094B1B689BB21A46FB79DB001A440D
:10461000064B13445B001B689BB218460C37BD4623
:104620005DF8047B704700BF505C00400430002000
:1046300080B483B000AF02460B46FA71BB80084BD2
:104640001B689BB21A46FB79DB001A44054B1344E6
:104650005B00BA881A600C37BD465DF8047B704772
:10466000505C00400230002080B485B000AF0246AC
:104670000B46FA71BB801B4B1B689BB21A46FB7939
:10468000DB001A44184B13445B00BB60BB883E2B15
:1046900012D9BB885B09FB81BB8803F01F03002B89
:1046A00002D1FB89013BFB81FB899B0243F4004360
:1046B0001A46BB681A600FE0BB885B08FB81BB88A9
:1046C00003F00103002B02D0FB890133FB81FB893E
:1046D0009B021A46BB681A601437BD465DF8047B1E
:1046E000704700BF505C00400630002080B483B0AB
:1046F00000AF0346FB710A4B1B689BB21A46FB795D
:10470000DB001A44074B13445B001B689BB2C3F3E6
:1047100009039BB218460C37BD465DF8047B704711
:10472000505C00400630002080B485B000AF0346E6
:10473000FB80FB88FB73FB881B0A9BB29AB2FB7B56
:104740001B029BB213439BB2BB81BB891846143733
:10475000BD465DF8047B704780B400AF084B002273
:104760001A60084B4FF406421A80074B054A12881C
:104770001A6000231846BD465DF8047B704700BFF1
:10478000445C00400C0B0020405C004080B500AF52
:104790000320FFF7ABFF03461A46074B1A60064B90
:1047A0001B689BB205484FF488711A46FFF74CFD11
:1047B0000320FFF719FE80BDEC090020140B002038
:1047C00080B582B000AF0346FB71FB79002B05D0AA
:1047D00006484FF4007102F0D5F904E003484FF4A5
:1047E000007102F0DDF90837BD4680BD00080140C8
:1047F00080B584B000AF0E4B1B68FB600D4B1B688F
:10480000BB600D4B1B687B60FA687B681344FB60E0
:10481000FB68002B09D0F8680849082200F012F85C
:10482000B8680749042200F00DF81037BD4680BD76
:10483000E8F7FF1FECF7FF1FF0F7FF1F060000204F
:104840001600002080B487B000AFF860B96013464E
:10485000FB710023FB750023FB7525E0FB681B0F34
:10486000092B0AD8FB7D5B00BA681344FA68120F63
:10487000D2B23032D2B21A7009E0FB7D5B00BA6866
:104880001344FA68120FD2B23732D2B21A70FB68F0
:104890001B01FB60FB7D5B000133BA6813440022FF
:1048A0001A70FB7D0133FB75FA7DFB799A42D5D3F3
:1048B0001C37BD465DF8047B704700BF80B500AF74
:1048C0001B4B1B689AB21B4B1A801A4B1B889BB25E
:1048D00003F40072184B1B881340002B0AD0144BB2
:1048E0004FF6FF521A60154B1B78DBB20133DAB278
:1048F000124B1A700F4B1B889BB203F400420E4BF5
:104900001B881340002B01D0FFF7E0FA094B1B88EE
:104910009BB203F48062084B1B881340002B06D027
:10492000034B4FF6FF321A60054B5B68984780BD1A
:10493000445C0040540B00200C0B0020F0090020C8
:104940006400002080B500AFFFF752FF054B1B68E5
:1049500000229A7200F088F9FFF7FEFE024B002257
:104960001A6080BD080B0020F409002080B500AF5C
:10497000364B1B6800229A72344B1B68344AD2793A
:104980005A72324B1B680022DA720020FFF78AFC51
:1049900000204FF40071FFF797FC00201021FFF773
:1049A000B7FC00204021FFF7EBFD00208021FFF73E
:1049B000C7FD0020FFF740FD264B93F82C30002068
:1049C0001946FFF751FE0020FFF70EFD01200021E0
:1049D000FFF77AFC0120C021FFF7B2FD0120202162
:1049E000FFF796FC01200021FFF7C8FC02204FF4DE
:1049F000C061FFF769FC02204FF48071FFF7A0FD52
:104A000002200021FFF7BAFC02202021FFF780FCE2
:104A100003200021FFF758FC03204FF48871FFF7B3
:104A2000AFFD03204021FFF71FFE03204FF440514C
:104A3000FFF7A4FC03200021FFF76AFC0020FFF72A
:104A400001FA054B01221A6080BD00BF080B00204F
:104A5000B4A5000864000020F409002080B400AF71
:104A6000054B1B78202B02D1034B00221A70BD4648
:104A70005DF8047B704700BFF109002080B400AFEF
:104A8000BD465DF8047B704780B584B000AF034637
:104A9000FB710023FB60FB79212B09D1164B1B68AE
:104AA0001B7803F07F03212B11D1144BFB600EE028
:104AB000FB79202B0BD1104B1B681B7803F07F0375
:104AC000212B01D10E4BFB600E4B20221A70FB688C
:104AD000002B01D102230BE0074B1B68FA689A6197
:104AE000054B1B6800225A82FB6800209847002370
:104AF00018461037BD4680BD080B0020014C000849
:104B0000354C0008F109002080B483B000AF0346A3
:104B1000FB710C4B1B681B7803F07F03212B09D121
:104B2000FB79022B01D1002305E0FB79222B01D177
:104B3000002300E0022318460C37BD465DF8047BD5
:104B4000704700BF080B002080B582B000AF03465D
:104B5000FB80FB8818460449FEF7D6FC034618463E
:104B60000837BD4680BD00BF9400002080B582B0EC
:104B700000AF0346FB80FB8818460449FEF7C4FCDF
:104B8000034618460837BD4680BD00BF9C00002084
:104B900080B584B000AF0346FB800B4B1B68DB780D
:104BA000FB73FB7B042B01D9002309E0FB7BDA00BC
:104BB000064B1344FA8810461946FEF7A5FC034637
:104BC00018461037BD4680BD080B0020A400002009
:104BD00080B483B000AF02460B46FA71BB71BB795B
:104BE000002B01D0022305E0FB79012B01D9022320
:104BF00000E0002318460C37BD465DF8047B704783
:104C000080B483B000AF0346FB80FB88002B05D146
:104C1000064B1B6808221A82002300E0044B18464A
:104C20000C37BD465DF8047B704700BF080B0020C1
:104C30005800002080B483B000AF0346FB80FB889F
:104C4000002B05D1064B1B6808221A82002300E0C6
:104C5000044B18460C37BD465DF8047B704700BF17
:104C6000080B00205800002080B582B000AF012062
:104C7000FFF7A6FD0123FB800C4BFA881A600C4B52
:104C800000221A80094B0A4A12881A60094B002236
:104C90001A60074B4FF4E0521A80044B044A128802
:104CA0001A60002318460837BD4680BD405C0040AE
:104CB0000C0B0020445C004080B586B002AF7860E9
:104CC0000023FB730023BB7307F10E030122009244
:104CD000234833211A462323FBF71EFC7B681A78EE
:104CE0007B685B781343DAB27B689B781343DAB254
:104CF000FB7B1343DBB2FB737B68DA787B681B7941
:104D00001343DAB27B685B791343DAB2BB7B13439C
:104D1000DBB2BB737B689B79012B05D1BB7B43F076
:104D20000803DBB2BB7304E0BB7B23F00F03DBB2F1
:104D3000BB7307F10F0301220092094833211A4681
:104D40002023FBF7CBFC07F10E030122009204485D
:104D500033211A462323FBF7C1FC1037BD4680BD23
:104D60000058004080B586B002AF78600023FB7326
:104D70000023BB737B685A787B68DB781343DAB215
:104D8000FB7B1343DBB2FB737B681B78012B05D1E4
:104D9000FB7B43F00803DBB2FB7304E0FB7B23F0F7
:104DA0000803DBB2FB737B681B79012B05D1FB7B0E
:104DB00043F00403DBB2FB7304E0FB7B23F004034A
:104DC000DBB2FB737B685B79012B05D1FB7B43F086
:104DD0000203DBB2FB7304E0FB7B23F00203DBB2D4
:104DE000FB737B689B79012B05D1FB7B43F00103AF
:104DF000DBB2FB7304E0FB7B23F00103DBB2FB734C
:104E00007B689A78BB7B1343DBB2BB7307F10F035C
:104E100001220092094833211A462123FBF75EFC48
:104E200007F10E0301220092044833211A4626237B
:104E3000FBF754FC1037BD4680BD00BF0058004052
:104E400080B584B002AF7860062300930448332114
:104E50007A682823FBF760FB0837BD4680BD00BF9A
:104E60000058004080B58AB002AF786007F10C03AB
:104E700002220092364833211A462323FBF74CFBCB
:104E800007F110031846FFF7DBFF7B7B03F04003BD
:104E9000002B02D04023FB7701E01023FB773B7B04
:104EA00003F04003002B04D07B7B03F04003002B76
:104EB00025D00023BB611EE0BB695B007A68134408
:104EC000BA695200013207F12000024412F8102C96
:104ED000120292B211B2BA69520007F120000244E4
:104EE00012F8102C1144FA7F91FBF2F292B21A8060
:104EF000BB690133BB61BB69022BDDDD24E000230C
:104F0000FB751EE0FB7D5B007A681344FA7D52005E
:104F100007F120010A4412F8102C120292B211B2C9
:104F2000FA7D5200013207F12000024412F8102CE1
:104F30001144FA7F91FBF2F292B21A80FB7D0133A9
:104F4000FB75FB7D022BDDD92037BD4680BD00BF40
:104F50000058004090B589B002AF786007F10C03AB
:104F60001846FFF77FFF07F1080302220092274847
:104F700033211A462323FBF7CFFA7B7A03F0400351
:104F8000002B03D04FF07A537B611DE03B7A03F096
:104F90003003102B0DD0102B02DC002B05D013E0BA
:104FA000202B0AD0302B0CD00EE04FF07E537B61CB
:104FB0000AE04FF07C537B6106E04FF07A537B614F
:104FC00002E0134B7B6100BF0023FB7418E0FB7C05
:104FD0009B007A68D418FB7C5B0007F1180213442D
:104FE00033F80C3C1BB2184603F00AF90346184686
:104FF000796903F00DFA03462360FB7C0133FB74EF
:10500000FB7C022BE3D91C37BD4690BD0058004005
:105010009FCDAA3D80B586B002AF786000233B7378
:1050200000237B730023FB723A7B7B681B7813435E
:10503000DBB23B737B68DB78012B04D13B7B63F0F5
:105040007F03DBB23B737A7B7B685B781343DBB215
:105050007B737B689A78FB7A1343DBB2FB7207F1B0
:105060000C030222009209483D211A460023FBF757
:1050700035FB07F10B030122009204483D211A463B
:105080000223FBF72BFB1037BD4680BD00580040C4
:10509000B0B58AB002AF786007F10F030122009229
:1050A0005A483D211A460123FBF736FA07F110034F
:1050B0000622009255483D211A460323FBF72CFA9D
:1050C000BB7C3B73FB7C7B733B7DBB747B7DFB7448
:1050D0003B7B3B757B7B7B75FB7B03F0E003802B8D
:1050E00024D0802B06DC402B12D0602B17D0202B35
:1050F00007D035E0C02B27D0E02B2CD0A02B1CD024
:105100002EE040F24C43FB834FF47573BB8327E0E2
:1051100040F25733FB834FF43E73BB8320E040F2F1
:105120009E23FB834FF41673BB8319E04FF4E173A6
:10513000FB834FF4C873BB8312E04FF4C873FB8347
:1051400040F26313BB830BE04FF4A573FB8340F283
:105150002713BB8304E0E623FB83CD23BB8300BF7F
:105160000023BB612EE0BB699B007A68D418BB6941
:105170005B0007F120010B4413F8103C1B029AB2AC
:10518000BB695B00013307F120010B4413F8103CAD
:1051900013449BB29BB21BB24FF47A7202FB03F32F
:1051A000184603F02DF80546FB8B184603F028F847
:1051B00003462846194603F02BF903462360BB69D2
:1051C0000133BB61BB69012BCDDD7B6803F10804B2
:1051D0003B7D1B029AB27B7D13449BB29BB21BB2F8
:1051E0004FF47A7202FB03F3184603F009F8054600
:1051F000BB8B184603F004F803462846194603F013
:1052000007F9034623602037BD46B0BD0058004073
:1052100080B584B000AF78600023FB730023BB73BC
:105220007B681A787B685B781343DAB27B689B787B
:105230001343DAB2FB7B1343DBB2FB737B68DA7890
:105240007B681B791343DAB27B685B791343DAB26C
:10525000BB7B1343DBB2BB7307F10F03084819464E
:1052600020220123FBF70EFC07F10E030448194628
:1052700023220123FBF706FC1037BD4680BD00BF8B
:105280000038004080B588B000AF786007F10F03A8
:105290002D48194623220123FBF7A6FB07F1100333
:1052A0002948194628220623FBF79EFBFB7B03F0C7
:1052B0004003002B22D10023FB611BE0FB695B0054
:1052C0007A681344FA695200013207F1200002445F
:1052D00012F8102C120291B2FA69520007F1200064
:1052E000024412F8102C0A4492B292B21A80FB695E
:1052F0000133FB61FB69022BE0DD21E00023BB6190
:105300001BE0BB695B007A681344BA69520007F17D
:1053100020010A4412F8102C120291B2BA6952000C
:10532000013207F12000024412F8102C0A4492B214
:1053300092B21A80BB690133BB61BB69022BE0DD0D
:105340002037BD4680BD00BF0038004090B587B013
:1053500000AF786007F10C031846FFF793FF07F1E1
:105360000B031D48194623220123FBF73DFBFB7A63
:1053700003F03003102B06D0302B07D0002B08D1C0
:10538000164B7B6105E0164B7B6102E0154B7B61A0
:1053900000BF0023FB7418E0FB7C9B007A68D418E4
:1053A000FB7C5B0007F11802134433F80C3C1BB282
:1053B000184602F025FF03461846796903F028F8DD
:1053C00003462360FB7C0133FB74FB7C022BE3D997
:1053D0001C37BD4690BD00BF00380040EC91E44250
:1053E000549264425C8F644180B586B000AF02463F
:1053F0000B46FA71BB7104231846012101F050FFDE
:105400004FF48063BB810423FB73FA79124B53F88A
:10541000222007F10C031046194601F0F7FABB7978
:10542000012B15D10023DAB20A23DBB2104619464C
:1054300001F034FC4FF480633B6100233B7508238B
:105440007B750123BB7507F11003184601F03EFA86
:105450001837BD4680BD00BFC400002080B584B0B1
:1054600000AF02460B46FA71BB712823DBB23B73D7
:105470000C23DBB27B730023DBB2BB73BB79FB7302
:1054800007F10C03184601F067F81037BD4680BDE0
:1054900080B489B000AFF860B9607A60FB687B6166
:1054A000FB685A1E364BA3FB0213DB0B9BB2013386
:1054B000BB83BB68BA8B1A80BB681B88FA68B2FBD7
:1054C000F3F3FB837B68FA8B1A8047E0BB681B8889
:1054D000FA68B2FBF3F39AB27B681A80BB681B8848
:1054E0007A68128802FB03F2FB68D31ABB61BB69BE
:1054F00083EAE372A2EBE372BB681B885B089BB292
:105500009A420EDD7B681B8801339AB27B681A8051
:10551000BB681B887A68128802FB03F2FB68D31A07
:10552000BB61BB6983EAE372A2EBE3727B69002B88
:10553000B8BF5B429A420BDABB697B61BB681B88D0
:10554000BB837B681B88FB83BB69002B00D10BE00E
:10555000BB681B8801339AB2BB681A80BB681A8883
:105560004FF6FD739A42B1D9BB68BA8B1A807B683B
:10557000FA8B1A802437BD465DF8047B704700BF64
:105580000180008080B588B000AF3223FB77012016
:10559000012101F0A3FE4FF08040012102F038F814
:1055A00007F10803184601F0CFFF1B4B1A68FB7F79
:1055B000B2FBF3F3BB6107F1160207F11403B869FC
:1055C00011461A46FFF764FFBB8A013B9BB2BB81C1
:1055D000FB8A013B9BB23B810023FB8100237B8143
:1055E00007F108034FF08040194601F031FF4FF0FA
:1055F0008040012101F0C2FF1C233B710023BB71DD
:105600000D237B710123FB713B1D184600F0A4FFA5
:105610002037BD4680BD00BFDC00002080B500AF54
:105620004FF08040012101F0C9FF0346002B07D055
:10563000044B01221A704FF08040012101F0E8FF75
:1056400080BD00BF1C0A002080B582B000AF4FF4BF
:10565000806001F0A9F90346002B26D0164800F01F
:1056600061FA164B1B685A1C144B1A60134B1B68CB
:10567000022B1AD100237B6007E0114A7B68134498
:1056800000221A707B6801337B607B68092BF4DD94
:105690000B480A2100F0C0FD0020FAF7C9FD074BB6
:1056A00000221A60074B00221A604FF4806001F05C
:1056B0009FF90837BD4680BD6CA60008FC09002094
:1056C000740B0020F809002080B588B000AF02F00C
:1056D00009F80F20202100F0ABFA0020032100F090
:1056E0005BFD0D4A07F110031068186012791A71FA
:1056F0000A4A07F108031068186012791A7107F155
:105700001003184600F022FB07F10803184600F0CA
:1057100033FB0023FB6106E01CA7000824A7000858
:10572000FB690133FB61FA69A74B9A42F8D9002063
:10573000FAF75EFD00200121FFF756FE002001214F
:10574000FFF78CFEA14800F0EDF9FFF71BFFA04822
:1057500000F0E8F99F4B4FF000025A679D4B4FF065
:1057600000029A679B4B9C4ADA679A4B9B4AC3F8A4
:105770008020984B4FF00002C3F88420954B984A44
:10578000C3F88820934B974A5A60924B964AC3F8C5
:105790008C20904B944AC3F890208E489349944AA9
:1057A000FBF7BCF9934800F0BDF993489349FAF729
:1057B00079FD9348FBF752F8924800F0B3F9924B09
:1057C00000221A70904B70225A708F4B07229A70E9
:1057D0008D4B0022DA708C4B00221A718A4B4022CA
:1057E0005A71894B01229A71884B00221A70874B9B
:1057F00000225A70854B00229A70844B1022DA7076
:10580000824B00221A71814B00225A717F4B002279
:105810009A717F4B14221A707D4B40225A707C4B38
:1058200000229A707A4B0122DA707748FFF744FA27
:105830007648FFF797FA7648FFF7ECFB754B08229E
:105840001A70744B40225A70724B07229A70714B37
:105850001022DA706F4B80221A716E4B40225A71FF
:105860006C48FFF7D5FC6C4800F05CF96B4800F021
:1058700059F96B4B1B68012B40F00B816948FFF70E
:1058800069FB6948FFF704FC6848FFF75FFD674B59
:105890005B6883F000433B60644B1B687B603A6845
:1058A000624B1A607A68614B5A605E4B1B681846FF
:1058B0005F4902F0F9FC034618465E4902F0A8FD74
:1058C00003461A46434B9A60574B1B681846594982
:1058D00002F09EFD03461A463E4B1A62534B1B686C
:1058E0001846554902F0E0FC03461846534902F0B9
:1058F0008FFD03461A46374B5A614A4B5B6883F06B
:10590000004318464A4902F0CFFC0346184649496D
:1059100002F07EFD03461A462E4BDA60424B9B682E
:1059200083F000431846434902F072FD03461A46CD
:10593000284B5A623D4B5B6883F0004318463E4952
:1059400002F0B2FC034618463C4902F061FD0346F2
:105950001A46204B9A61334B9B6883F000431846EC
:10596000334902F0A1FC03461846324902F050FDCB
:1059700003461A46174B1A612B4B5B6883F00043B2
:1059800018462C4902F044FD03461A46114B9A6210
:10599000264B9B6883F000431846274902F084FC9D
:1059A00003461846254902F033FD03461A46094BC3
:1059B000DA6108480D490E4AFBF744FA204B1B6890
:1059C00003F10B023EE000BFFEFF0F0080A60008BF
:1059D000A0A60008800B0020C3F51CC1A470BD3E2A
:1059E000000080BE0AD7A33CCA61B336000A00207B
:1059F0000C0A0020B8A6000800580040801A0600D3
:105A000000380040CCA60008580B00206C0B00208A
:105A1000440C00209C0C0020E8A6000808A7000801
:105A2000FC090020180C0020600B0020A40C0020B2
:105A3000CDCC1C4100007A44D80F494000003443CB
:105A4000F8090020134B1A60124B1B68184602F02D
:105A5000D7FB0246104B1A60104B1A680E4B5A6067
:105A60000E4B5A680C4B9A600C4B9A680A4BDA60E2
:105A70000A4BDA68084B1A61074BBB61B8691421FD
:105A800000F0CAFB322000F00BF80020FAF7E2FB2E
:105A9000EFE6EEE6F8090020480C00200C0A002092
:105AA00080B483B000AF78607B6843F2D40202FB1D
:105AB00003F37B607B6818460138FDD80C37BD4680
:105AC0005DF8047B704700BF80B400AFBD465DF851
:105AD000047B704780B400AFFEE700BF80B400AF26
